{
  "transactions": [
    {
      "hash": "0xcd4b26e29b428a75ac6aa52ef8e624491e6bd3240ed8fd20a29895a77838cb0b",
      "transactionType": "CALL",
      "contractName": null,
      "contractAddress": "0xa29bd29b9d57f32e66de96ff4a425807b17dd981",
      "function": "mint((address,address,uint24,int24,int24,uint256,uint256,uint256,uint256,address,uint256))",
      "arguments": [
        "(0x0a312768B1E715e0E461f70Abc34Bbd7D8f4D63C, 0x65d698b248248dE624F6D90C2796BF1273F69317, 3000, 247260, 259260, 50000000000000000000, 50000000000, 0, 0, 0x70997970C51812dc3A010C7d01b50e0d17dc79C8, 1775148092)"
      ],
      "transaction": {
        "from": "0x70997970c51812dc3a010c7d01b50e0d17dc79c8",
        "to": "0xa29bd29b9d57f32e66de96ff4a425807b17dd981",
        "gas": "0xa3e44",
        "value": "0x0",
        "input": "0x883164560000000000000000000000000a312768b1e715e0e461f70abc34bbd7d8f4d63c00000000000000000000000065d698b248248de624f6d90c2796bf1273f693170000000000000000000000000000000000000000000000000000000000000bb8000000000000000000000000000000000000000000000000000000000003c5dc000000000000000000000000000000000000000000000000000000000003f4bc000000000000000000000000000000000000000000000002b5e3af16b18800000000000000000000000000000000000000000000000000000000000ba43b74000000000000000000000000000000000000000000000000000000000000000000000000000000000000000000000000000000000000000000000000000000000000000000000000000000000070997970c51812dc3a010c7d01b50e0d17dc79c80000000000000000000000000000000000000000000000000000000069ce9c3c",
        "nonce": "0x8bf",
        "chainId": "0x7ec"
      },
      "additionalContracts": [],
      "isFixedGasLimit": false
    }
  ],
  "receipts": [
    {
      "status": "0x1",
      "cumulativeGasUsed": "0x70101",
      "logs": [
        {
          "address": "0x0a312768b1e715e0e461f70abc34bbd7d8f4d63c",
          "topics": [
            "0xddf252ad1be2c89b69c2b068fc378daa952ba7f163c4a11628f55a4df523b3ef",
            "0x00000000000000000000000070997970c51812dc3a010c7d01b50e0d17dc79c8",
            "0x000000000000000000000000d81ac4fac15313acd17fc465f016dd1547330b03"
          ],
          "data": "0x0000000000000000000000000000000000000000000000000000000000000001",
          "blockHash": "0x68b8b851c92f8971ed29576439f27bd15fb63cbe4e6cbb8993245c79f931e686",
          "blockNumber": "0x186957",
          "blockTimestamp": "0x69ce8e40",
          "transactionHash": "0xcd4b26e29b428a75ac6aa52ef8e624491e6bd3240ed8fd20a29895a77838cb0b",
          "transactionIndex": "0x0",
          "logIndex": "0x0",
          "removed": false
        },
        {
          "address": "0x65d698b248248de624f6d90c2796bf1273f69317",
          "topics": [
            "0xddf252ad1be2c89b69c2b068fc378daa952ba7f163c4a11628f55a4df523b3ef",
            "0x00000000000000000000000070997970c51812dc3a010c7d01b50e0d17dc79c8",
            "0x000000000000000000000000d81ac4fac15313acd17fc465f016dd1547330b03"
          ],
          "data": "0x0000000000000000000000000000000000000000000000000000000ba43b633c",
          "blockHash": "0x68b8b851c92f8971ed29576439f27bd15fb63cbe4e6cbb8993245c79f931e686",
          "blockNumber": "0x186957",
          "blockTimestamp": "0x69ce8e40",
          "transactionHash": "0xcd4b26e29b428a75ac6aa52ef8e624491e6bd3240ed8fd20a29895a77838cb0b",
          "transactionIndex": "0x0",
          "logIndex": "0x1",
          "removed": false
        },
        {
          "address": "0xd81ac4fac15313acd17fc465f016dd1547330b03",
          "topics": [
            "0x7a53080ba414158be7ec69b987b5fb7d07dee101fe85488f0853ae16239d0bde",
            "0x000000000000000000000000a29bd29b9d57f32e66de96ff4a425807b17dd981",
            "0x000000000000000000000000000000000000000000000000000000000003c5dc",
            "0x000000000000000000000000000000000000000000000000000000000003f4bc"
          ],
          "data": "0x000000000000000000000000a29bd29b9d57f32e66de96ff4a425807b17dd9810000000000000000000000000000000000000000000000000000000000094ce200000000000000000000000000000000000000000000000000000000000000010000000000000000000000000000000000000000000000000000000ba43b633c",
          "blockHash": "0x68b8b851c92f8971ed29576439f27bd15fb63cbe4e6cbb8993245c79f931e686",
          "blockNumber": "0x186957",
          "blockTimestamp": "0x69ce8e40",
          "transactionHash": "0xcd4b26e29b428a75ac6aa52ef8e624491e6bd3240ed8fd20a29895a77838cb0b",
          "transactionIndex": "0x0",
          "logIndex": "0x2",
          "removed": false
        },
        {
          "address": "0xa29bd29b9d57f32e66de96ff4a425807b17dd981",
          "topics": [
            "0xddf252ad1be2c89b69c2b068fc378daa952ba7f163c4a11628f55a4df523b3ef",
            "0x0000000000000000000000000000000000000000000000000000000000000000",
            "0x00000000000000000000000070997970c51812dc3a010c7d01b50e0d17dc79c8",
            "0x000000000000000000000000000000000000000000000000000000000000000a"
          ],
          "data": "0x",
          "blockHash": "0x68b8b851c92f8971ed29576439f27bd15fb63cbe4e6cbb8993245c79f931e686",
          "blockNumber": "0x186957",
          "blockTimestamp": "0x69ce8e40",
          "transactionHash": "0xcd4b26e29b428a75ac6aa52ef8e624491e6bd3240ed8fd20a29895a77838cb0b",
          "transactionIndex": "0x0",
          "logIndex": "0x3",
          "removed": false
        },
        {
          "address": "0xa29bd29b9d57f32e66de96ff4a425807b17dd981",
          "topics": [
            "0x3067048beee31b25b2f1681f88dac838c8bba36af25bfb2b7cf7473a5847e35f",
            "0x000000000000000000000000000000000000000000000000000000000000000a"
          ],
          "data": "0x0000000000000000000000000000000000000000000000000000000000094ce200000000000000000000000000000000000000000000000000000000000000010000000000000000000000000000000000000000000000000000000ba43b633c",
          "blockHash": "0x68b8b851c92f8971ed29576439f27bd15fb63cbe4e6cbb8993245c79f931e686",
          "blockNumber": "0x186957",
          "blockTimestamp": "0x69ce8e40",
          "transactionHash": "0xcd4b26e29b428a75ac6aa52ef8e624491e6bd3240ed8fd20a29895a77838cb0b",
          "transactionIndex": "0x0",
          "logIndex": "0x4",
          "removed": false
        }
      ],
      "logsBloom": "0x00000000000000000002100020200800108000000000020000000000000000000000000000020000000000000000000000000000040000000420200040000000000200000000000400000008000000000000000000000000000000000000000000000808020000000000000000000820000000000800000000000010800000000000000008000000010000000010000000000002000000000000010200000020000001000000000000000000020000000000000000000000000000000000400000000002000000000000080000000000000000000000000000000000000020000000000000000000000000000000000001000010080000000000000000000800",
      "type": "0x0",
      "transactionHash": "0xcd4b26e29b428a75ac6aa52ef8e624491e6bd3240ed8fd20a29895a77838cb0b",
      "transactionIndex": "0x0",
      "blockHash": "0x68b8b851c92f8971ed29576439f27bd15fb63cbe4e6cbb8993245c79f931e686",
      "blockNumber": "0x186957",
      "gasUsed": "0x70101",
      "effectiveGasPrice": "0xe8d4a51000",
      "from": "0x70997970c51812dc3a010c7d01b50e0d17dc79c8",
      "to": "0xa29bd29b9d57f32e66de96ff4a425807b17dd981",
      "contractAddress": null
    }
  ],
  "libraries": [
    "lib/pyth-crosschain/target_chains/ethereum/sdk/solidity/PythUtils.sol:PythUtils:0x6039565f9ff755754e9c52b6dfe4ab7ba6db2957"
  ],
  "pending": [],
  "returns": {},
  "timestamp": 1775144513,
  "chain": 2028,
  "commit": "6739bf0"
}