{
  "transactions": [
    {
      "hash": "0x8e8dca90fc12f959246cfbbb763a2104a63555cab5fb5fb4ab67bae318fc2eb9",
      "transactionType": "CALL",
      "contractName": null,
      "contractAddress": "0x0a312768b1e715e0e461f70abc34bbd7d8f4d63c",
      "function": "approve(address,uint256)",
      "arguments": [
        "0xA29bD29b9D57f32E66DE96fF4A425807B17Dd981",
        "115792089237316195423570985008687907853269984665640564039457584007913129639935"
      ],
      "transaction": {
        "from": "0x70997970c51812dc3a010c7d01b50e0d17dc79c8",
        "to": "0x0a312768b1e715e0e461f70abc34bbd7d8f4d63c",
        "gas": "0xfbda",
        "value": "0x0",
        "input": "0x095ea7b3000000000000000000000000a29bd29b9d57f32e66de96ff4a425807b17dd981ffffffffffffffffffffffffffffffffffffffffffffffffffffffffffffffff",
        "nonce": "0x8bc",
        "chainId": "0x7ec"
      },
      "additionalContracts": [],
      "isFixedGasLimit": false
    },
    {
      "hash": "0xbdae5277c9989e123240b9f924850ecb9bfc067991ca91baeb8121d9c8de2a89",
      "transactionType": "CALL",
      "contractName": null,
      "contractAddress": "0x65d698b248248de624f6d90c2796bf1273f69317",
      "function": "approve(address,uint256)",
      "arguments": [
        "0xA29bD29b9D57f32E66DE96fF4A425807B17Dd981",
        "115792089237316195423570985008687907853269984665640564039457584007913129639935"
      ],
      "transaction": {
        "from": "0x70997970c51812dc3a010c7d01b50e0d17dc79c8",
        "to": "0x65d698b248248de624f6d90c2796bf1273f69317",
        "gas": "0x108b9",
        "value": "0x0",
        "input": "0x095ea7b3000000000000000000000000a29bd29b9d57f32e66de96ff4a425807b17dd981ffffffffffffffffffffffffffffffffffffffffffffffffffffffffffffffff",
        "nonce": "0x8bd",
        "chainId": "0x7ec"
      },
      "additionalContracts": [],
      "isFixedGasLimit": false
    },
    {
      "hash": "0x3fa61d0abf6dc1ae13917d4bc8c351207a4670952560f170883faa13fd9bc3d6",
      "transactionType": "CALL",
      "contractName": null,
      "contractAddress": "0xa29bd29b9d57f32e66de96ff4a425807b17dd981",
      "function": "mint((address,address,uint24,int24,int24,uint256,uint256,uint256,uint256,address,uint256))",
      "arguments": [
        "(0x0a312768B1E715e0E461f70Abc34Bbd7D8f4D63C, 0x65d698b248248dE624F6D90C2796BF1273F69317, 3000, -887220, 887220, 50000000000000000000, 5000000000, 0, 0, 0x70997970C51812dc3A010C7d01b50e0d17dc79C8, 1775143888)"
      ],
      "transaction": {
        "from": "0x70997970c51812dc3a010c7d01b50e0d17dc79c8",
        "to": "0xa29bd29b9d57f32e66de96ff4a425807b17dd981",
        "gas": "0xd49ed",
        "value": "0x0",
        "input": "0x883164560000000000000000000000000a312768b1e715e0e461f70abc34bbd7d8f4d63c00000000000000000000000065d698b248248de624f6d90c2796bf1273f693170000000000000000000000000000000000000000000000000000000000000bb8fffffffffffffffffffffffffffffffffffffffffffffffffffffffffff2764c00000000000000000000000000000000000000000000000000000000000d89b4000000000000000000000000000000000000000000000002b5e3af16b1880000000000000000000000000000000000000000000000000000000000012a05f2000000000000000000000000000000000000000000000000000000000000000000000000000000000000000000000000000000000000000000000000000000000000000000000000000000000070997970c51812dc3a010c7d01b50e0d17dc79c80000000000000000000000000000000000000000000000000000000069ce8bd0",
        "nonce": "0x8be",
        "chainId": "0x7ec"
      },
      "additionalContracts": [],
      "isFixedGasLimit": false
    }
  ],
  "receipts": [
    {
      "status": "0x1",
      "cumulativeGasUsed": "0xb657",
      "logs": [
        {
          "address": "0x0a312768b1e715e0e461f70abc34bbd7d8f4d63c",
          "topics": [
            "0x8c5be1e5ebec7d5bd14f71427d1e84f3dd0314c0f7b2291e5b200ac8c7c3b925",
            "0x00000000000000000000000070997970c51812dc3a010c7d01b50e0d17dc79c8",
            "0x000000000000000000000000a29bd29b9d57f32e66de96ff4a425807b17dd981"
          ],
          "data": "0xffffffffffffffffffffffffffffffffffffffffffffffffffffffffffffffff",
          "blockHash": "0x608e809484d65c376e086a543417419e4f127c3bd8f0e8e2a0f9aa174c130dbd",
          "blockNumber": "0x186122",
          "blockTimestamp": "0x69ce7dd6",
          "transactionHash": "0x8e8dca90fc12f959246cfbbb763a2104a63555cab5fb5fb4ab67bae318fc2eb9",
          "transactionIndex": "0x0",
          "logIndex": "0x0",
          "removed": false
        }
      ],
      "logsBloom": "0x00000000000000000002000000200800000000000000000000000000000000000000000000000000000000000000000000000000000000000000200000200000000000000000000400000000000000000000000000000000000000000000000000000800000000000000000000000020000000000000000000000000000000000000000000000000000000000000000000000000000000000000000000000020020000000000000000000000000000000000000000000000000000000000000000000000000000000000000000000000000000000000000000000000000000000010000000000000000000000000000001000000000000000000000000000000",
      "type": "0x0",
      "transactionHash": "0x8e8dca90fc12f959246cfbbb763a2104a63555cab5fb5fb4ab67bae318fc2eb9",
      "transactionIndex": "0x0",
      "blockHash": "0x608e809484d65c376e086a543417419e4f127c3bd8f0e8e2a0f9aa174c130dbd",
      "blockNumber": "0x186122",
      "gasUsed": "0xb657",
      "effectiveGasPrice": "0xe8d4a51000",
      "from": "0x70997970c51812dc3a010c7d01b50e0d17dc79c8",
      "to": "0x0a312768b1e715e0e461f70abc34bbd7d8f4d63c",
      "contractAddress": null
    },
    {
      "status": "0x1",
      "cumulativeGasUsed": "0x16b59",
      "logs": [
        {
          "address": "0x65d698b248248de624f6d90c2796bf1273f69317",
          "topics": [
            "0x8c5be1e5ebec7d5bd14f71427d1e84f3dd0314c0f7b2291e5b200ac8c7c3b925",
            "0x00000000000000000000000070997970c51812dc3a010c7d01b50e0d17dc79c8",
            "0x000000000000000000000000a29bd29b9d57f32e66de96ff4a425807b17dd981"
          ],
          "data": "0xffffffffffffffffffffffffffffffffffffffffffffffffffffffffffffffff",
          "blockHash": "0x608e809484d65c376e086a543417419e4f127c3bd8f0e8e2a0f9aa174c130dbd",
          "blockNumber": "0x186122",
          "blockTimestamp": "0x69ce7dd6",
          "transactionHash": "0xbdae5277c9989e123240b9f924850ecb9bfc067991ca91baeb8121d9c8de2a89",
          "transactionIndex": "0x1",
          "logIndex": "0x1",
          "removed": false
        }
      ],
      "logsBloom": "0x00000000000000000002000020200000000000000000000000000000000000000000000000000000000000000000000000000000000000000000000000200000000200000000000000000000000000000000000000000000000000000000000000000800000000000000000000000020000000000000000000000000800000000000000000000000000000000000000000000000000000000000000000000020020000000000000000000000000000000000000000000000000000000000000000000000000000000000000000000000000000000000000000000000000000000010000000000000000000000000000001000000000000000000000000000000",
      "type": "0x0",
      "transactionHash": "0xbdae5277c9989e123240b9f924850ecb9bfc067991ca91baeb8121d9c8de2a89",
      "transactionIndex": "0x1",
      "blockHash": "0x608e809484d65c376e086a543417419e4f127c3bd8f0e8e2a0f9aa174c130dbd",
      "blockNumber": "0x186122",
      "gasUsed": "0xb502",
      "effectiveGasPrice": "0xe8d4a51000",
      "from": "0x70997970c51812dc3a010c7d01b50e0d17dc79c8",
      "to": "0x65d698b248248de624f6d90c2796bf1273f69317",
      "contractAddress": null
    },
    {
      "status": "0x1",
      "cumulativeGasUsed": "0xa8174",
      "logs": [
        {
          "address": "0x0a312768b1e715e0e461f70abc34bbd7d8f4d63c",
          "topics": [
            "0xddf252ad1be2c89b69c2b068fc378daa952ba7f163c4a11628f55a4df523b3ef",
            "0x00000000000000000000000070997970c51812dc3a010c7d01b50e0d17dc79c8",
            "0x000000000000000000000000d81ac4fac15313acd17fc465f016dd1547330b03"
          ],
          "data": "0x0000000000000000000000000000000000000000000000000000000000000001",
          "blockHash": "0x608e809484d65c376e086a543417419e4f127c3bd8f0e8e2a0f9aa174c130dbd",
          "blockNumber": "0x186122",
          "blockTimestamp": "0x69ce7dd6",
          "transactionHash": "0x3fa61d0abf6dc1ae13917d4bc8c351207a4670952560f170883faa13fd9bc3d6",
          "transactionIndex": "0x2",
          "logIndex": "0x2",
          "removed": false
        },
        {
          "address": "0x65d698b248248de624f6d90c2796bf1273f69317",
          "topics": [
            "0xddf252ad1be2c89b69c2b068fc378daa952ba7f163c4a11628f55a4df523b3ef",
            "0x00000000000000000000000070997970c51812dc3a010c7d01b50e0d17dc79c8",
            "0x000000000000000000000000d81ac4fac15313acd17fc465f016dd1547330b03"
          ],
          "data": "0x000000000000000000000000000000000000000000000000000000012a04ccd5",
          "blockHash": "0x608e809484d65c376e086a543417419e4f127c3bd8f0e8e2a0f9aa174c130dbd",
          "blockNumber": "0x186122",
          "blockTimestamp": "0x69ce7dd6",
          "transactionHash": "0x3fa61d0abf6dc1ae13917d4bc8c351207a4670952560f170883faa13fd9bc3d6",
          "transactionIndex": "0x2",
          "logIndex": "0x3",
          "removed": false
        },
        {
          "address": "0xd81ac4fac15313acd17fc465f016dd1547330b03",
          "topics": [
            "0x7a53080ba414158be7ec69b987b5fb7d07dee101fe85488f0853ae16239d0bde",
            "0x000000000000000000000000a29bd29b9d57f32e66de96ff4a425807b17dd981",
            "0xfffffffffffffffffffffffffffffffffffffffffffffffffffffffffff2764c",
            "0x00000000000000000000000000000000000000000000000000000000000d89b4"
          ],
          "data": "0x000000000000000000000000a29bd29b9d57f32e66de96ff4a425807b17dd9810000000000000000000000000000000000000000000000000000000000003dd50000000000000000000000000000000000000000000000000000000000000001000000000000000000000000000000000000000000000000000000012a04ccd5",
          "blockHash": "0x608e809484d65c376e086a543417419e4f127c3bd8f0e8e2a0f9aa174c130dbd",
          "blockNumber": "0x186122",
          "blockTimestamp": "0x69ce7dd6",
          "transactionHash": "0x3fa61d0abf6dc1ae13917d4bc8c351207a4670952560f170883faa13fd9bc3d6",
          "transactionIndex": "0x2",
          "logIndex": "0x4",
          "removed": false
        },
        {
          "address": "0xa29bd29b9d57f32e66de96ff4a425807b17dd981",
          "topics": [
            "0xddf252ad1be2c89b69c2b068fc378daa952ba7f163c4a11628f55a4df523b3ef",
            "0x0000000000000000000000000000000000000000000000000000000000000000",
            "0x00000000000000000000000070997970c51812dc3a010c7d01b50e0d17dc79c8",
            "0x0000000000000000000000000000000000000000000000000000000000000009"
          ],
          "data": "0x",
          "blockHash": "0x608e809484d65c376e086a543417419e4f127c3bd8f0e8e2a0f9aa174c130dbd",
          "blockNumber": "0x186122",
          "blockTimestamp": "0x69ce7dd6",
          "transactionHash": "0x3fa61d0abf6dc1ae13917d4bc8c351207a4670952560f170883faa13fd9bc3d6",
          "transactionIndex": "0x2",
          "logIndex": "0x5",
          "removed": false
        },
        {
          "address": "0xa29bd29b9d57f32e66de96ff4a425807b17dd981",
          "topics": [
            "0x3067048beee31b25b2f1681f88dac838c8bba36af25bfb2b7cf7473a5847e35f",
            "0x0000000000000000000000000000000000000000000000000000000000000009"
          ],
          "data": "0x0000000000000000000000000000000000000000000000000000000000003dd50000000000000000000000000000000000000000000000000000000000000001000000000000000000000000000000000000000000000000000000012a04ccd5",
          "blockHash": "0x608e809484d65c376e086a543417419e4f127c3bd8f0e8e2a0f9aa174c130dbd",
          "blockNumber": "0x186122",
          "blockTimestamp": "0x69ce7dd6",
          "transactionHash": "0x3fa61d0abf6dc1ae13917d4bc8c351207a4670952560f170883faa13fd9bc3d6",
          "transactionIndex": "0x2",
          "logIndex": "0x6",
          "removed": false
        }
      ],
      "logsBloom": "0x00000000000000000002100020200800100000000000020000000000000000000000000000020000002000000000000000000000000000000400200040280000000200000000000400000008000000000000000000000000000000000000000000000800020000000000000000000820000000000800000000000010800000000000000008000000000000000010000000001000000000000000012000000020000200800000000000000000020000020000000000000000000000000000400000000002000000000000080000000000000000000000000000000000000020000000000000000000000000000000000001000000080000000000000000800800",
      "type": "0x0",
      "transactionHash": "0x3fa61d0abf6dc1ae13917d4bc8c351207a4670952560f170883faa13fd9bc3d6",
      "transactionIndex": "0x2",
      "blockHash": "0x608e809484d65c376e086a543417419e4f127c3bd8f0e8e2a0f9aa174c130dbd",
      "blockNumber": "0x186122",
      "gasUsed": "0x9161b",
      "effectiveGasPrice": "0xe8d4a51000",
      "from": "0x70997970c51812dc3a010c7d01b50e0d17dc79c8",
      "to": "0xa29bd29b9d57f32e66de96ff4a425807b17dd981",
      "contractAddress": null
    }
  ],
  "libraries": [
    "lib/pyth-crosschain/target_chains/ethereum/sdk/solidity/PythUtils.sol:PythUtils:0x6039565f9ff755754e9c52b6dfe4ab7ba6db2957"
  ],
  "pending": [],
  "returns": {},
  "timestamp": 1775140312,
  "chain": 2028,
  "commit": "6739bf0"
}